{
  "contractName": "AgeContract",
  "abi": [
    {
      "constant": false,
      "inputs": [
        {
          "name": "_age",
          "type": "uint256"
        }
      ],
      "name": "setAge",
      "outputs": [],
      "payable": false,
      "stateMutability": "nonpayable",
      "type": "function"
    },
    {
      "constant": true,
      "inputs": [],
      "name": "getAge",
      "outputs": [
        {
          "name": "",
          "type": "uint256"
        }
      ],
      "payable": false,
      "stateMutability": "view",
      "type": "function"
    }
  ],
  "bytecode": "0x608060405234801561001057600080fd5b5060df8061001f6000396000f3006080604052600436106049576000357c0100000000000000000000000000000000000000000000000000000000900463ffffffff168063967e6e6514604e578063d5dcf127146076575b600080fd5b348015605957600080fd5b50606060a0565b6040518082815260200191505060405180910390f35b348015608157600080fd5b50609e6004803603810190808035906020019092919050505060a9565b005b60008054905090565b80600081905550505600a165627a7a7230582061d9c1dfa9f341c60daeefa5005616f2d46c0b55bcc6f145bbe8318785f18f0c0029",
  "source": "pragma solidity ^0.4.24;\n\ncontract AgeContract {\n    uint private age;\n    \n    function setAge(uint _age) public {\n        age = _age;\n    }\n    \n    function getAge() public view returns (uint) {\n        return age;\n    }\n}\n",
  "sourcePath": "/home/rajesh/Desktop/Abi/truffle_demo_exam/contracts/AgeContract.sol",
  "compiler": {
    "name": "solc",
    "version": "0.4.26+commit.4563c3fc.Emscripten.clang"
  },
  "schemaVersion": "2.0.3",
  "updatedAt": "2019-10-27T10:41:44.274Z"
}