{
  "contractName": "UserDetails",
  "abi": [
    {
      "constant": false,
      "inputs": [
        {
          "name": "_age",
          "type": "uint256"
        },
        {
          "name": "_name",
          "type": "string"
        },
        {
          "name": "_date",
          "type": "string"
        }
      ],
      "name": "setDetails",
      "outputs": [],
      "payable": false,
      "stateMutability": "nonpayable",
      "type": "function"
    },
    {
      "constant": true,
      "inputs": [],
      "name": "getDetails",
      "outputs": [
        {
          "name": "",
          "type": "uint256"
        },
        {
          "name": "",
          "type": "string"
        },
        {
          "name": "",
          "type": "string"
        }
      ],
      "payable": false,
      "stateMutability": "view",
      "type": "function"
    }
  ],
  "bytecode": "0x608060405234801561001057600080fd5b50610467806100206000396000f30060806040526004361061004c576000357c0100000000000000000000000000000000000000000000000000000000900463ffffffff1680637d6ff28114610051578063fbbf93a01461010a575b600080fd5b34801561005d57600080fd5b5061010860048036038101908080359060200190929190803590602001908201803590602001908080601f0160208091040260200160405190810160405280939291908181526020018383808284378201915050505050509192919290803590602001908201803590602001908080601f016020809104026020016040519081016040528093929190818152602001838380828437820191505050505050919291929050505061020d565b005b34801561011657600080fd5b5061011f610247565b604051808481526020018060200180602001838103835285818151815260200191508051906020019080838360005b8381101561016957808201518184015260208101905061014e565b50505050905090810190601f1680156101965780820380516001836020036101000a031916815260200191505b50838103825284818151815260200191508051906020019080838360005b838110156101cf5780820151818401526020810190506101b4565b50505050905090810190601f1680156101fc5780820380516001836020036101000a031916815260200191505b509550505050505060405180910390f35b82600081905550816001908051906020019061022a929190610396565b508060029080519060200190610241929190610396565b50505050565b600060608060005460016002818054600181600116156101000203166002900480601f0160208091040260200160405190810160405280929190818152602001828054600181600116156101000203166002900480156102e85780601f106102bd576101008083540402835291602001916102e8565b820191906000526020600020905b8154815290600101906020018083116102cb57829003601f168201915b50505050509150808054600181600116156101000203166002900480601f0160208091040260200160405190810160405280929190818152602001828054600181600116156101000203166002900480156103845780601f1061035957610100808354040283529160200191610384565b820191906000526020600020905b81548152906001019060200180831161036757829003601f168201915b50505050509050925092509250909192565b828054600181600116156101000203166002900490600052602060002090601f016020900481019282601f106103d757805160ff1916838001178555610405565b82800160010185558215610405579182015b828111156104045782518255916020019190600101906103e9565b5b5090506104129190610416565b5090565b61043891905b8082111561043457600081600090555060010161041c565b5090565b905600a165627a7a72305820a0590b921df71cdc718edba2db77ce0f98f375918bd283d4a4c3e36e2946a6bf0029",
  "source": "pragma solidity ^0.4.24;\n\ncontract UserDetails {\n\n    uint private age;\n    string private name;\n    string private date;\n    \n    function setDetails(uint _age, string _name, string _date) public {\n        age = _age;\n        name = _name;\n        date = _date;\n    }\n    \n    function getDetails() public view returns (uint, string, string) {\n        return (age,name,date);\n        \n    \n    }\n}\n",
  "sourcePath": "/home/rajesh/Desktop/Abi/truffle_demo_exam/contracts/UserDetails.sol",
  "compiler": {
    "name": "solc",
    "version": "0.4.26+commit.4563c3fc.Emscripten.clang"
  },
  "schemaVersion": "2.0.3",
  "updatedAt": "2019-10-27T18:48:28.745Z"
}